:020000040800F2
:1000000000200020DD010008E5010008E9010008EA
:1000100000000000000000000000000000000000E0
:1000200000000000000000000000000005020008C1
:100030000000000000000000090200080D02000896
:100040001502000815020008150200081502000834
:100050001502000815020008150200081502000824
:100060001502000815020008150200081502000814
:100070001502000815020008150200081502000804
:100080001502000815020008000000001502000813
:1000900015020008150200081502000815020008E4
:1000A00015020008150200081502000815020008D4
:1000B0001502000800000000150200080000000002
:1000C0005FF808F130B583B000F0C4F8314B324A24
:1000D0001360324A1360324B324A03E011681960F0
:1000E0000433043230498B42F8D32B4B1A682F4B20
:1000F0009A4204D1294B1A682D4B9A4200D0FEE750
:10010000244B2C4A13602C4A13602C4B02E0002233
:100110001A6004332A4A9342F9D3264B1B68002BFA
:1001200003D1254B1B68002B00D0FEE700F096F8AA
:1001300001A8694600F086F8224C234B1C1BA41032
:10014000002504E0AA001F4BD35898470135AC4264
:10015000F8DC1E4C1E4B1C1BA410002504E0AA005A
:100160001A4BD35898470135AC42F8DC01980099F6
:1001700000F076FA051C174C174B1C1BA41004E06A
:10018000013CA200134BD3589847002CF8DC281CE4
:1001900000F056F8BABADECA0000002020000020A5
:1001A00000000020B8070008240000207856341210
:1001B00032547698240000202C00002024000020D7
:1001C0003000002040020008400200084002000801
:1001D00040020008400200084002000808B5FFF78E
:1001E00071FFC04600BEFEE704207146084202D0FF
:1001F000EFF3098001E0EFF308807146044A1047ED
:1002000000BEFEE700BEFEE700BEFEE7704700004E
:080210000102000800BEFEE738
:10021800B80700080000002024000020B8070008E4
:100228000000000000000000240000203000002032
:080238000000000000000000BE
:10024000FEE7C04601230360014B0B607047C046C8
:100250000400002008B500F05DF808BD08B500F006
:100260008BF808BD82B0002301930093264A1368DF
:10027000802149020B431360234B1A6880239B02A1
:1002800013400093019B01330193009B002B04D189
:10029000019AA023DB019A42EED11B4B1B689B0302
:1002A00002D50123009301E000230093009B012B62
:1002B00028D11122154B1A60134B5A685A605A689C
:1002C0005A605968124A0A405A605A68882149039C
:1002D0000A435A601A68802149040A431A600A4B8B
:1002E0001B689B01FBD5084B5A6803218A435A605F
:1002F000596802220A435A60034B5B680C22134080
:10030000082BF9D102B070470010024000200240D3
:10031000FF7FC0FF08B5124B1A6801210A431A601B
:100320005868104A02405A6018680F4A02401A6022
:1003300018680E4A02401A6058680D4A02405A6016
:10034000DA6A0F208243DA62186B0A4A02401A63A3
:100350005A6B8A435A6300229A60FFF783FF08BDF5
:10036000001002400CB8FFF8FFFFF6FEFFFFFBFF96
:10037000FFFFC0FFACFEFFFF10B51E4B5B680C22F9
:100380001340042B07D0082B09D0002B22D11A4A86
:100390001A4B1A6021E0184A184B1A601DE0154BE1
:1003A0005C68A4025A68240F0234C0235B021A421C
:1003B00004D113484443114B1C600EE00D4BDB6A23
:1003C0000F21194001310C4800F05CF944430B4BFC
:1003D0001C6002E0084A094B1A60064B5B681B066A
:1003E0001B0F084AD35CDBB2044A1168D940116084
:1003F00010BDC0460010024000127A001C00002010
:1004000000093D000C00002082B00023019343004E
:10041000181804E0C046C046019B01330193019BBC
:100420008342F7D302B0704710B51420FFF7ECFFFA
:10043000084CA369802212061343A3611420FFF71E
:10044000E3FFA369802212021343A3611420FFF784
:10045000DBFF10BD0008004810B5012906D14A4A4B
:1004600093698021C9010B43936107E0002905D1FD
:10047000454A93698021C9050B439361002807DA37
:100480009022D2059369802109020B43936106E013
:100490009022D2059369802109060B439361C4B26F
:1004A000630607D59022D2059369802149010B4349
:1004B000936106E09022D2059369802149050B43A0
:1004C0009361A30606D5314A9369802189000B43C5
:1004D000936105E02D4A9369802189040B43936160
:1004E000E30606D5294A9369802149000B439361AD
:1004F00005E0264A9369802149040B439361FFF785
:1005000093FF230707D59022D20593698021090222
:100510000B43936106E09022D2059369802109067E
:100520000B439361630707D59022D205936980211D
:1005300049010B43936106E09022D2059369802123
:1005400049050B439361A30706D5104A936980219F
:1005500089000B43936105E00C4A9369802189046B
:100560000B439361E30706D5084A9369802149004C
:100570000B43936105E0054A9369802149040B43CD
:100580009361FFF751FF10BD0008004800040048C8
:1005900038B5051C002404E040B20121FFF75CFFE0
:1005A0000134285D0028F7D138BDC04608B540B2F7
:1005B0000021FFF751FF0248FFF726FF08BDC046A4
:1005C000B80B000038B52248FFF71EFF214B5A69CF
:1005D000802109030A435A615A698025ED022A43A2
:1005E0005A615A69802189020A435A611A4B1A6872
:1005F000802149050A431A6018688024E4052043D5
:100600001860164B1868802252021043186019684F
:10061000294319609023DB05196880225204114395
:1006200019601A6822431A603320FFF7BFFF332096
:10063000FFF7BCFF3220FFF7B9FF0C20FFF7B6FF32
:100640002820FFF7B3FF0120FFF7B0FF38BDC046F9
:100650003075000000100240000800480004004807
:1006600008B5FFF7AFFF0548FFF792FFC020FFF77F
:100670009DFF0348FFF78CFFFEE7C046A807000870
:10068000B0070008002243088B4274D303098B4251
:100690005FD3030A8B4244D3030B8B4228D3030C52
:1006A0008B420DD3FF22090212BA030C8B4202D3F4
:1006B0001212090265D0030B8B4219D300E0090A1C
:1006C000C30B8B4201D3CB03C01A5241830B8B4225
:1006D00001D38B03C01A5241430B8B4201D34B030E
:1006E000C01A5241030B8B4201D30B03C01A524173
:1006F000C30A8B4201D3CB02C01A5241830A8B42F8
:1007000001D38B02C01A5241430A8B4201D34B02E0
:10071000C01A5241030A8B4201D30B02C01A524144
:10072000CDD2C3098B4201D3CB01C01A52418309F8
:100730008B4201D38B01C01A524143098B4201D332
:100740004B01C01A524103098B4201D30B01C01A5D
:100750005241C3088B4201D3CB00C01A52418308D7
:100760008B4201D38B00C01A524143088B4201D304
:100770004B00C01A5241411A00D201465241104664
:100780007047FFE701B5002000F00CF802BDC0463D
:100790000029F7D003B5FFF775FF0EBC4243891A55
:1007A0001847C0467047C04662626173696C0000BA
:0807B00076302E302E310000DE
:1007B80078563412280000200000000000000000D5
:1007C800000000000102030406070809006CDC02AF
:0407D8003254769889
:04000005080000C52A
:00000001FF
